:020000040800F2
:1000000048080020890200089B4D0008E94C0008C0
:10001000994D0008812600081552000800000000D4
:100020000000000000000000000000009F4D0008DC
:1000300083260008000000009D4D0008A14D000827
:10004000A3020008A3020008A3020008A3020008FC
:10005000A3020008A3020008A3020008A3020008EC
:10006000A3020008A3020008A3020008A3020008DC
:10007000A3020008A3020008A3020008A3020008CC
:10008000A3020008A3020008A3020008A3020008BC
:10009000A3020008A3020008A3020008A3020008AC
:1000A000A3020008A3020008A3020008A30200089C
:1000B000154E0008A3020008A3020008A3020008CE
:1000C000A3020008A3020008A3020008A30200087C
:1000D000A302000809520008A3020008A3020008B6
:1000E000A3020008A3020008A3020008A30200085C
:1000F000A3020008A3020008A3020008A30200084C
:10010000A3020008A3020008A3020008A30200083B
:10011000A3020008A3020008A3020008A30200082B
:10012000A3020008A3020008A3020008A30200081B
:1001300000F002F800F098F80AA090E8000C824461
:100140008344AAF10107DA4501D100F08DF8AFF23E
:10015000090EBAE80F0013F0010F18BFFB1A43F0A5
:1001600001031847EC5300000C540000103A24BF60
:1001700078C878C1FAD8520724BF30C830C144BF0C
:1001800004680C607047000000230024002500264E
:10019000103A28BF78C1FBD8520728BF30C148BFEA
:1001A0000B6070476E2900F03A83702900F08F844D
:1001B000662905F02581652905F02281672905F06A
:1001C0001F81612905F01E8103681B0A28BF41F0C9
:1001D0008001692900F0EC80642900F0E98075292C
:1001E00000F0E6806F2900F01C84782900F05B8421
:1001F000E92900F0B783E42900F0B483F52900F081
:10020000B183EF2900F01984F82900F05A840368BB
:10021000DB0928BF41F08001632901F05D8073296B
:1002200001F06280E32901F06D80F32901F0728012
:10023000002070471FB59DE8030000F0FFF901F0B2
:1002400095F904000020002105F0C4F8401C60600E
:100250000020002105F0A8F8E06001F063F81FBD60
:1002600010B501F0C8F810BD01F053F91146FFF7C1
:10027000E1FF05F03DF801F0D9FB03B4FFF7F0FF13
:1002800003BC01F011FC0000094880470948004701
:10029000FEE7FEE7FEE7FEE7FEE7FEE7FEE7FEE736
:1002A000FEE7FEE704480549054A064B7047000093
:1002B000134E0008310100084802002048080020C1
:1002C000480400204804002070B5064600F09AF962
:1002D000056806F10B0020F00704B4429CBF002023
:1002E00070BD2B466A68BAB11068A04210D304F101
:1002F000080188423CBF5068586007D35168101904
:1003000041601168091B016058601460101D70BDC8
:1003100013465268002AE7D12146284600F07AF9B0
:100320000028DED170BD70B50446051F00F06AF9E3
:100330000068002C14BF446870BD002C18BFAC428C
:100340003CBF20466468F8D301680A18AA4218BF67
:10035000456003D12A6805461144016028684119A7
:10036000A1421CBF6C6070BD61686960216808446F
:10037000286070BD1CB50C46064B7B446946009056
:10038000204600F066FA04460020694600F074FA40
:1003900020461CBDFB0400000FB4044910B503AA9D
:1003A000029800F06FFA10BC5DF814FB3C010020CD
:1003B0002DE9F0410646002410687529314616A53E
:1003C00010D000F098F9002802DA404213A507E0A7
:1003D00031688A0701D512A502E0490704D511A5A5
:1003E000012401E000F090F900210A2206F124071F
:1003F00009E0B0FBF2FCB0FBF2F302FB1C00303072
:1004000078541846491C0028F3D123462A46304622
:10041000BDE8F04100F0AAB9000000002D00000086
:100420002B000000200000002DE9F05F8946044603
:100430004FF0000ADFF874B1FB44C0F820A020465A
:10044000E1688847002874D0252806D0D4E9012126
:100450009047206A401C2062F1E700265F46204654
:10046000E16888472028054607DB312D05D2781939
:1004700010F8200C08B10643F1E7B00701D526F0CB
:100480000406C4F81CA00027C4F818A02A2D09D01F
:10049000284604F0E4FE38B304EB8708303DC8F882
:1004A000185019E059F8041B204604EB87029161AB
:1004B000E1688847012F054618D1E069002820DA55
:1004C00026F020061DE0D8F8180000EB800005EBB0
:1004D00040003038C8F818002046E16888470546D3
:1004E00004F0BDFE0028EED1012F0AD02E2D08D138
:1004F0002046E16888477F1C0546022F46F020060B
:10050000C4DBA069002803DA404246F00106A0617E
:10051000F00701D026F010066C2D0BD0682D09D005
:100520004C2D39D06A2D35D0742D35D07A2D33D05D
:1005300016E038E0E1682F4620468847B842054675
:1005400009D16C2F26D04FF48060E1680643204625
:100550008847054604E06C2F1AD04FF4807006439C
:100560000DB3A5F14100192802D8203546F40066E4
:100570004A462946204626604E46FFF713FE80B1C4
:1005800001280BD0F61D26F0070000F1080956E7F8
:100590004020E4E78020D8E70020D6E706F10409F0
:1005A0004DE7284652E7206ABDE8F09F085000005A
:1005B0004FF0000200B5134694469646203922BFFC
:1005C000A0E80C50A0E80C50B1F12001BFF4F7AF47
:1005D000090728BFA0E80C5048BF0CC05DF804EB29
:1005E000890028BF40F8042B08BF704748BF20F897
:1005F000022B11F0804F18BF00F8012B7047704795
:100600007047704700487047EC0100207047704702
:100610007047704738B504460A4600206946AFF374
:100620000080002808BF38BD02460099204600F02F
:100630005DFA012038BD012000F030BFF8B5AFF3FE
:100640000080054600200C46102000BF0646A81971
:10065000A0420DD9324669460020AFF30080070062
:1006600008BF00F01BFF0098A04218BF0546C41940
:10067000FFF7C8FF05600746F01D20F00700461988
:10068000284600F00AF8B44208BFF8BDA21B314664
:100690003868BDE8F84000F029BA00210160C0E9DF
:1006A000011070471020704770B5044685690068D6
:1006B000C10601D5302600E02026C00707D070BD56
:1006C000D4E9012130469047206A401C20626D1E0B
:1006D000F6D570BD70B5044685690078C00707D1AE
:1006E00070BDD4E9012120209047206A401C20627F
:1006F0006D1EF6D570BD09684A0501D540B2704738
:10070000C905FCD500B2704709684A0501D5C0B2D9
:100710007047C905FCD580B2704770B50C460546D8
:10072000012A05D02878800600D5EA69002302E076
:10073000012305E05B1C934202D2E05C0028F9D162
:10074000A869E618C01AA861286A184428622846D1
:10075000FFF7AAFF04E0D5E9012114F8010B904747
:10076000B442F8D32846FFF7B5FF70BD2DE9F04736
:100770000D4699469246044600F124080168880611
:1007800004D5E06921F01001216000E00120A842B9
:1007900001DD471B00E00027A1697A1902EB09007F
:1007A000081AA0612078C00602D42046FFF77CFF1B
:1007B000002608E0D4E901211AF806009047206AD3
:1007C000401C761C20624E45F4DB2078C0060AD51A
:1007D0002046FFF769FF06E0D4E901213020904769
:1007E000206A401C2062381EA7F10107F4DC07E0F4
:1007F000D4E9012118F805009047206A401C2062C6
:10080000281EA5F10105F3DC2046FFF763FF2078E1
:10081000000602D50220BDE8F0870120FBE7116841
:100820000268006A530501D508700AE0D30501D5B6
:10083000088006E0130603D5C217C1E9000200E0F4
:10084000086001207047000001694A1C02610878B5
:10085000704700B58FB0CDE9013100210591054900
:100860007944CDE9031011466846FFF7DDFD0FB06E
:1008700000BD0000E5FFFFFF0A6802F8010B0A60F7
:1008800070470000074B70B50D467B44FFF7E1FF52
:100890000446284600F042FD10B14FF0FF3070BD15
:1008A000204670BD234A00002DE9FF5F15468A46A9
:1008B0000446DFF8AC80F8440027D8E900103E4633
:1008C000CDE9001010E03AF816106A4602A800F0D0
:1008D000C5FD411C07D02178890603D5E269391886
:1008E00091420DD80744761C2078800602D5E06935
:1008F000B84205DDAE42E6DB3AF816000028E2D148
:10090000A069C01BA0612046FFF7CEFED8E9001009
:10091000CDE90010002017E03AF818106A4602A846
:1009200000F09CFDB0F1FF3F81460BD000250DF19A
:10093000080B05E0D4E901211BF8050090476D1C68
:100940004D45F7D308F10100B0428046E4DB206A50
:10095000384420622046FFF7BDFEBDE8FF9F00003F
:100960009E4B00002DE9F0418046D21D22F0070287
:100970000025D2E90002F52915A614D0011E72F156
:10098000000106DA0023D0EB030063EB020211A69C
:1009900008E0D8F800108B0701D50FA602E0490740
:1009A00001D50EA601251146002408F1240704E014
:1009B00000F0B6F830323A55641C50EA0102F7D123
:1009C0002B46324621464046BDE8F041FFF7CEBEF9
:1009D000000000002D0000002B000000200000009F
:1009E00030B4002100F1240408E002F00705D20829
:1009F000303542EA4372DB086554491C52EA03056C
:100A0000F3D10468002310A2250707D5A40600D45B
:100A100021B1C46901230DA2641EC46130BCFFF77B
:100A2000A5BE10B5044621461068FFF76DFE0246CC
:100A30002046BDE810400023D2E7D21D22F0070176
:100A4000D1E90023CCE700000000000030000000E6
:100A5000F0B40D460188090502D5214C7C4402E022
:100A60001F4C7C440E34002100F1240608E002F003
:100A70000F071209E75D42EA03721B097754491C0C
:100A800052EA0307F3D102780023120704D5702D30
:100A900006D009B1022311342246F0BCFFF766BE2E
:100AA00001231034F8E770B504460D46214610685E
:100AB000FFF72AFE024629462046BDE87040002383
:100AC000C6E7D21D22F00703D3E90023C0E703687D
:100AD000126843F0200303600823C3610023B7E7D3
:100AE000004A000000487047E401002003464068C7
:100AF0008C46002818BF88423CBF03464068F8D3A4
:100B000018681844884207D00CF1030020F0070051
:100B1000001D411A521A0146081D0A60FFF703BC66
:100B200030B5B0F10A024FEA900E71F100034EEABF
:100B3000817EB0EB0E0061EB91014FEA101E4EEA90
:100B4000017E10EB0E0041EB11114FEA102E4EEA20
:100B5000016E10EB0E0041EB11214FEA104E4EEAF0
:100B6000014E10EB0E0041EB1141401841F1000124
:100B70004FEAD00040EA41704FEAD10110EB800506
:100B80004FEA810444EA907444EB01046D1944EB8C
:100B90000404521BA3414FF0000348BF0A3200D5A2
:100BA00030BD401C41F1000130BD70472DE9FF4FC1
:100BB0000C461E464FF0FF378BB0D2E90001DDF83E
:100BC00060800A908A46C1F30A5505B93D46002166
:100BD00008464FF00000BAF1000F00F4400005DABB
:100BE00000EB80004FF4400101EA50004FEA9059B9
:100BF000B9F1010F00DDB9460A9850EA4A000ED05B
:100C000044F61050A5F2FF3545432F14B8F1000FFC
:100C10001ED07542291E1EDDC9F100021CE0B8F18C
:100C2000010F4FF0000001D0302103E0F24305E056
:100C30002154401CB042FBDB3046002200212154ED
:100C40000B99C1F80880C1E900200FB0BDE8F08F12
:100C5000BD1B6D1CDEE74A4600DA694206A800F0BB
:100C6000C9FC06AB93E8070003AB83E807005046D6
:100C70000A9901F0D3F88DE80700A0F500501F385D
:100C800000900398002D0ADD42F21F014A460844F5
:100C9000002303A90390684601F03CFB09E0A0F59E
:100CA00000504A461F38002303A90390684601F00C
:100CB00046FB8DE807000004000C03D04FF0FF3026
:100CC000410800E01046B8F1000F03D00022009266
:100CD00015461EE0751E05D4FFF722FF303262551F
:100CE0006D1EF9D5B3460122084302D000227F1CB5
:100CF00004E02078302801D100227F1E002A0997C5
:100D000084D01DE0112D07DAFFF70AFF303262555B
:100D10006D1C50EA0102F5D1084302D00098C8B119
:100D20000EE00021681E05E0235C625C63542254DF
:100D3000401E491C8142F7DBAB46A81B401E0990B0
:100D4000002004F80B000B98099AC0F80880C0E94D
:100D5000002B7AE711264FF0000857E72DE9F04FF6
:100D600088460446D21D22F0070191B0D1E9000166
:100D7000CDE90A0104F04FFA02460B98C00F01D0EA
:100D80002D2007E02068810701D52B2002E02021DB
:100D900001EAC000032A099001D0072A05DB0346B7
:100DA0004146204600F0E6FB0BE12078800601D5A5
:100DB000E06900E00620B8F1650F814606D0B8F181
:100DC000660F18D0B8F1670F70D131E00020B9F18B
:100DD000110F009001DB112301E009F101030AAAC0
:100DE00001A90CA8FFF7E2FEDDE90C70002609F16D
:100DF0000105834647E001204B4600904FF0004735
:100E00000AAA01A90CA8FFF7D1FEDDE90DB00C99E3
:100E10005D46002610B909F101000D18B9EB050077
:100E200003D4C0F1FF3609F10105A5EB09002BE061
:100E3000B9F1010F01DA4FF001090020B9F1110FEA
:100E40000090484601DD112300E003460AAA01A9EB
:100E50000CA8FFF7ABFEDDE90C704D46002683467B
:100E6000207800070AD4AB4500DA5D4601A8012DC1
:100E700004DD411911F8011C302907D04F4502DA71
:100E800017F1040F04DA012082460FE06D1EEEE731
:100E9000002F02DCED1B3E4403E0781CA84200DD7D
:100EA0007D1CB81B00F1010A4FF0004720780007B5
:100EB00003D4AA4501DB4FF0FF3A0021B7F1004F00
:100EC0000DF143088DF8431024D002202B23002F6E
:100ED00001DA7F422D230A21021EA0F1010000DC6D
:100EE0005FB197FBF1FC97FBF1F201FB1C7C17460D
:100EF0000CF1300C08F801CDEEE7A8F10100037009
:100F00002188090501D5452100E06521A0F10108EE
:100F100000F8011C09980FA9A1EB0807FF1D00B1FB
:100F20000120411901EBEA70A1693844081A401EFA
:100F3000A0612078C00602D42046FFF7B5FB0998CF
:100F400028B1D4E901219047206A401C2062207812
:100F5000C00622D52046FFF7A7FB1EE0002E04DBCB
:100F6000B34502DD01A8805D00E03020D4E9012115
:100F70009047206A401C2062761CAAF101005FEABB
:100F8000000A0AD100F0F2FAC0680168405CD4E9B6
:100F900001219047206A401C2062281EA5F101050E
:100FA000DCDC07E0D4E9012118F8010B9047206A46
:100FB000401C2062381EA7F10107F3DC2046FFF732
:100FC00089FB032011B041E62DE9F04F04460D46A0
:100FD000D21D22F0070089B0D0E900974846394673
:100FE00004F019F90246F80F01D02D2307E020681C
:100FF000810701D52B2302E0202101EAC0038DF8EF
:1010000020300BB1012000E00020032A824601D0ED
:10101000072A04DB2946204600F0ACFA3FE120789D
:10102000800601D40D2500E0E569C7F30A560D2DB1
:1010300049DA00214FEA175B08464FF00000002F05
:1010400000F4400007DA00EB80004FF4400100EBB1
:10105000D07001EA60008115012901DD4FF0FF31F8
:1010600000224FEA850CBCF1180F06D31346ACF1F1
:1010700018004FF08052C24003E04FF4801323FA6F
:101080000CF30CF10C0CBCF1200F04D3ACF1200CD0
:1010900009FA0CF001E007FA0CF000294FF00048C3
:1010A00001DD18B90FE00ED140450CD319EB020950
:1010B0005F4121B9404502D19F4329EA0209BBEBB8
:1010C000175F00D0761C2088000502D57B48784445
:1010D00002E07A487844193808AA302302F80A3026
:1010E000037C0AF10101002E0AF1020A53546A46F8
:1010F00002DC4FF0300101E04FF031014FF0010808
:101100008DF8001002D0A6F2FF3603E059EA47013D
:1011100000D06B4E002D02DC2178090704D54FF07A
:1011200002082E218DF80110C44600210BE0C7F300
:1011300003433F01C35C491C6D1E02F808300529BA
:1011400008F1010801DA002DF1DC00210CE000EBD0
:101150001973491C1B786D1E082902F808304FEAE4
:10116000091908F1010801DA002DF0DC21688B066D
:1011700002D516E0A8F10108E04505DD02EB080301
:1011800013F8013C302BF5D0B8F1000F09DD02EB6C
:10119000080313F8013C2E2B03D1090701D4A8F151
:1011A0000108002D05DD3E2102F808106D1E08F132
:1011B0000108407C002E02F8080008F1010804DA5A
:1011C0002D20764202F8080002E02B2002F80800E9
:1011D0000A214FF47A70864208F101080BDB96FB76
:1011E000F0F3303302F8083096FBF0F308F1010811
:1011F00000FB136601E0642E0CDB642096FBF0F329
:10120000303302F8083096FBF0F308F1010800FBD8
:10121000136601E00A2E06DB96FBF1F0303002F88F
:10122000080008F1010896FBF1F001FB1060303076
:1012300002F80800A16908F1010808EB050202EBB9
:101240000A00081AA0612078C00602D42046FFF7E1
:101250002BFA216A08AE01EB0A00206204E0D4E90F
:10126000012116F8010B9047BAF1010AF7D2207854
:10127000C00602D52046FFF717FA6E4609E016F8B9
:10128000010B3E280FD0D4E901219047206A401C71
:101290002062B8F10108F2D22046FFF71BFA09B02C
:1012A0000320BDE8F08F206A2844206203E0D4E9DF
:1012B0000121302090476D1EEBD3F8E7C9430000B1
:1012C00002FCFFFF10B5436913B1AFF3008001E0EA
:1012D000FFF723FA012010BD127800F124010A70F3
:1012E00000224A700122EDE711684FF0FF32E9E772
:1012F00010B5436913B1AFF3008001E0FFF7D4FAF2
:10130000012010BD128800F1240182840022C284D1
:101310000122EDE711684FF0FF32E9E7007B00F0B2
:101320008000704710B542485421FFF741F9414809
:101330005421FFF73DF940485421FFF739F93F495F
:101340003B483C4A3F4B08603D490A603A491960B6
:10135000531C0365481C1065012008653B48344A4E
:1013600039A1784400F0C6FA20B9384878440A38E0
:1013700000F06AFB37482F4A35A1784400F0BAFAEA
:1013800020B9344878440A3800F05EFB32482A4AD3
:101390002FA1784400F0AEFA20B92F4878440A38DB
:1013A00000F052FB40232248DC000021224600F0DE
:1013B0007EFA20B125487844543800F045FB1D489A
:1013C00022464023002100F072FA20B121487844DF
:1013D000543800F039FB184822461023002100F051
:1013E00066FA002806D01C487844BDE810405638FC
:1013F00000F02ABB10BD104870B5006D20F001044C
:101400000B4800F0EDFA0B4800F0EAFA0A4800F049
:10141000E7FA09E0206D20F00105204600F0E0FA2F
:101420002046FEF780FF2C46002CF3D170BD000053
:10143000E80000203C010020900100201C0000205A
:10144000200000202400002072000000484100001D
:1014500077000000344100002041000070B51646BE
:101460000C46054600F07AF8036893F8010101285C
:1014700006D0FF2C0FD8185D68B101202C7070BD0C
:10148000D3F807013246214603F2071303442846E6
:10149000BDE8704018474FF0FF3070BD10B500F048
:1014A000DBFABDE8104000F0CABA0EB5CDE9000184
:1014B00000F028FC029069460120ABBE0EBD08B5C5
:1014C000694600900220ABBE08BD1FB58DE807003D
:1014D00069460520ABBE04B010BD1FB58DE80F00F6
:1014E00069460620ABBEF6E708B5694600900920BC
:1014F000ABBE08BD1CB5CDE9000169460A20ABBEF4
:101500001CBD704708B5694600900C20ABBE08BDF5
:1015100070477546FFF7E6FAAE4605006946534642
:1015200020F00700854618B020B5FEF7BBFEBDE8E9
:1015300020404FF000064FF000074FF000084FF03A
:10154000000B21F00701AC46ACE8C009ACE8C009CB
:10155000ACE8C009ACE8C0098D46704710B500F092
:1015600005F8001D10BD00BF6D3E0000004870472B
:10157000040200202DE9F0411F46044603260168BD
:10158000072A01F4006004DB08B116A505E016A5E2
:1015900003E008B115A500E015A521F010002060BA
:1015A000A069C01EA0610FB1401EA0612046FFF7D8
:1015B0007BF84FB1D4E9012138469047206A401C9E
:1015C0002062C01C206206E0206AFAE7D4E901210B
:1015D00015F8010B9047761EF8D22046FFF77AF8EF
:1015E000BDE8F0814E414E006E616E00494E4600EE
:1015F000696E66002DE9F047814616468AB0354887
:1016000078440DC88DE80D0032487844801C03AC46
:101610000DC884E80D0041F69B300844372190FB4B
:10162000F1F290FBF1F5A5F1800501FB12041B3CE2
:1016300002D56442012000E00020DFF898A0804637
:101640000027FA44AAF1BE0A0EE0E0070AD03246AB
:10165000684607EB470101230AEB810100F06FFEAA
:101660008DE8070064107F1C002CEED1194F7F44D9
:10167000AE3F19E0E80715D007EB04100DF1180A8A
:1016800090E80E008AE80E00C068F04201D1981977
:1016900008903246012306A903A800F050FE03ABD0
:1016A00083E807006D10641C002DE3D14FF00103A7
:1016B00032466946B8F1000F03A802D000F02AFEB6
:1016C00001E000F03CFEC9E90001C9F808200AB0B9
:1016D000BDE8F087343F00002DE9F04705460C4691
:1016E000C86820F4201040F48000C860800602D54D
:1016F000084600F0B2FAE06841F282014FF0FF398B
:101700000140022903D0204600F050FAB5E000F471
:101710002041B1F5004F0FD1C00306D56168E06AE2
:10172000884200D80846606006E02069E062606098
:101730006069FFF7E7FEA061A0680022EEB2002812
:101740000DDAE1688B050AD4C043A06041F4903003
:101750002260E0606068411C61600670A5E0E0689E
:101760009046226040F40050E060206968BB6069E8
:10177000FFF7BAFE012704F12405A0B1A08910F4F7
:10178000407F08D0E069FEF79FFD206118B1E06856
:1017900040F4006016E0E7612561E06820F44070E5
:1017A00040F480600EE0E069FEF78EFD00282061C5
:1017B000F1D0E06840F4006010F4407FE06002D1B6
:1017C00040F48070E06020696060E06825696FF037
:1017D000010AC1051FD56168E06A884200D8084641
:1017E000411B04D02246284600F0EAF9F0BBE0682D
:1017F000010203D5E562C4E9015854E0691CE162C5
:101800006160E16940F48030491EC4E9021030464D
:101810002E70BDE8F087010202D500F480320AE0A4
:101820006068411C61600670E0680A2E40F48030F8
:10183000E06006D00022E16A6068814203D90B466D
:1018400002E00122F7E70346A7895B1B7F0503D46B
:10185000E7699F4200DDE2B1814200D80146E562BE
:101860000F1AC4E90158002B09DD00E005E022460B
:101870001946284600F0A4F908B14846C9E747B11F
:10188000A069E5626560C01BA061E06840F01000DF
:10189000E060E068000208D56168A069E562491B64
:1018A00008446560A0615046B3E73046B1E770B5C3
:1018B000C468A50713D0650211D4B2F5807F09D0A2
:1018C000B2F5007F06D0B2F5806F08D1012300F198
:1018D000240106E05D1E6FF07F46B54201D3012072
:1018E00070BD0161C361416024F470611143C16046
:1018F000002070BD2DE9F0410C4607461646104603
:1019000000F06EF82078611C61280AD0722802D09D
:1019100077283CD102E00125002405E002250424BB
:1019200002E0082448F2020511F8010B2B2806D02A
:10193000622809D011F8010C74280AD00BE045F098
:10194000030544F00204EFE745F0040544F0010408
:10195000EAE744F0100438462146FFF7A6FD411C93
:1019600015D00021316171604FF40071F560F161B3
:101970007061200704D530460222002100F09AF859
:10198000306D40F0010030653046BDE8F081002048
:10199000FBE72DE9F0410D460646104C206DC107CE
:1019A00004D0410804D020F00104F7E722460EE0FD
:1019B0005420FEF789FC07000ED0206D47F001018E
:1019C0000843542120653846FEF7F2FD3A46294681
:1019D0003046BDE8F0418DE70020D6E7E800002062
:1019E0002DE9F04704464FF000094FF0FF37C56876
:1019F000D4E90486A80707D0204600F00BF930464A
:101A0000FFF75DFD002802DA3846BDE8F0872805BB
:101A100002D54046FEF787FC4C212046FEF7C8FD64
:101A2000206D20F0010020654846EEE710B5044621
:101A3000AFF300802046BDE81040FEF71EBC002832
:101A400001D000F031B8704710B500F041F9BDE8A1
:101A50001040FFF7F4BF000010B5012805D00021A9
:101A600003A000F01BF9012010BD09A1F8E7000058
:101A700053494752544D454D3A204F7574206F6677
:101A80002068656170206D656D6F727900000000DF
:101A90003A2048656170206D656D6F727920636FC3
:101AA000727275707465640001491820ABBEFEE760
:101AB000260002002DE9F041044616460D4647690E
:101AC000007B80072ED03846FFF70EFD50BB3EB39B
:101AD000012E02D0022E25D104E0204600F079F933
:101AE00005441DE03846FFF70DFDE168002841F090
:101AF0001001E16005DA204600F058F80120BDE849
:101B0000F081C9030BD56268E16A914200D81146A1
:101B1000A26911442269891A814200DD0846054400
:101B2000002D01DA0220EAE7E16A6068E26881429A
:101B300006D29103E06203D522F4003141F0100295
:101B4000A6690027AE4213DCE16A814201D90B4647
:101B500000E0034603EB060C2369ACEB030CAC4539
:101B600006DD814201D98C4600E084469C4505D1C2
:101B7000A760276042F02000A5620DE0AD1BE6697A
:101B8000AE1B8142A66000D90846C01A281A206000
:101B90005819606022F0200003490840E0600020EE
:101BA00084F84870ABE70000BFCFD7FFC16821F4CD
:101BB000001141F08001C160002181600160704727
:101BC0002DE9F047814614460E464FF0FF38324863
:101BD000D5685769054209D03846A169FFF78AFCE4
:101BE000002811DB2C48C0430540E5602B463246F7
:101BF00049463846FFF769FCA16920F00042B21A55
:101C000011440028A16103D02046FFF7CFFF4046D2
:101C1000BDE8F08770B504460569C06A616888420E
:101C200000D80846E16821F42011E160C90312D50B
:101C3000A84208D02246411B2846FFF7C1FF10B139
:101C40004FF0FF3070BD0020E562C4E90150E0684C
:101C500020F48030E060002070BD10B50446C068FC
:101C600020F02000E060A16AA06988420DD02046E3
:101C7000FFF7D0FFE06820F4405040F01000E06033
:101C8000A06AA0612069E062606044F24001E068FF
:101C90008843E06010BD00001000020070B50546EA
:101CA0000C460A2000E06D1C00F08CF835B1287855
:101CB0000028F8D102E0641C00F084F814B1207808
:101CC0000028F8D1BDE870400A2000F07BB8000081
:101CD00010B5014602A0FFF7E1FF012010BD000092
:101CE00053494752545245443A20526564697265DB
:101CF00063743A2063616E2774206F70656E3A20BA
:101D00000000000010B5431C02E010F8011B71B187
:101D10008107FAD14FF0013202C88C1A8C4314EAC1
:101D2000C211F9D0C01A0A0603D0C01E10BDC01AD5
:101D300010BD0A0401D0801E10BD0902FCD0401E57
:101D400010BD00004FF0013C50F8042B51F8043B4B
:101D50009A4221D1A2EB0C03934313EACC1317D17F
:101D600050F8042B51F8043B9A4215D1A2EB0C0316
:101D7000934313EACC130BD150F8042B51F8043BD6
:101D80009A4209D1A2EB0C03934313EACC13DBD0A4
:101D90004FF00000704700BFD01A01BAB1FA81F1CC
:101DA00001F0180122FA01F0CB40C1F12001DBB2B1
:101DB000C0B2C01A2CFA01F3D11A914311EAC3112F
:101DC000E6D1704708B569468DF800000320ABBE28
:101DD00008BD10B50146C268900703D0900607D52C
:101DE000886A0AE000F016F801210160881E10BD23
:101DF0008B69486818440B69C01A91F848301BB1C8
:101E000091F84910401A10BD1103FCD50028FADDE5
:101E1000401E10BD00487047E40100205FEA400CFE
:101E200008BF91F0000F4FEA8C234FEAC12243EA2A
:101E300051514FEA1C5018BF00F5F0404FEA3000F6
:101E400018BF41F000415FEA6C5C00F02980BCF1F2
:101E5000FF3F08BF40F080407047130C06BF1204DC
:101E60004FF0100C4FF0000C130E04BF12020CF1D7
:101E7000080C130F04BF12010CF1040C930F04BFE4
:101E800092000CF1020CD30F04BF52000CF1010CB4
:101E900011464FF00002A0F11F00A0EB0C007047AC
:101EA00011F0004F08BF704731F000413FF4D5AF4B
:101EB0000B0C06BF09044FF0100C4FF0000C0B0E7A
:101EC00004BF09020CF1080C0B0F04BF09010CF14F
:101ED000040C8B0F04BF89000CF1020CCB0F04BF64
:101EE00049000CF1010CCCF12003A0EB0C0022FA0C
:101EF00003F302FA0CF241EA030100F1010070471A
:101F000020F07F4C80EA030023F07F47ACEB07030F
:101F100003F57C5300F0004003F1FF032DE98049F5
:101F20004FEA154B09B44FEA144325EA0B4E24EA55
:101F300003480FF2042606EB132749083E785FEAB0
:101F4000320203FB0667C7F5000707FB06F64FEAF8
:101F500054374FEAD64606F1020607FB066CCCF171
:101F6000005C4FEA1C472CEA074C07FB06F40CFB0D
:101F700006F504EB15464FEA961634BF00204FF0E5
:101F800000404FEAD13706FB07FC4FEA1C4C0CFB24
:101F90000BF7D21B03FB0CF761EB07010CFB0EF7F1
:101FA000B0EB074072EB17420CFB08F734BFA2EB13
:101FB0000742B2EB074261EB17414FEA0C444FEA8C
:101FC000910706FB07FC4FEA1C4C0CFB0BF7B0EB30
:101FD000C74072EB573203FB0CF734BFA2EBC7428A
:101FE000B2EBC74261EB57310CFB0EF7B0EBC70009
:101FF00072EB57720CFB08F734BFA2EBC702B2EBCF
:10200000C70261EB5771039F4FEA816141EA921168
:1020100004EBCC044FEAD1374FEA826206FB07FC9F
:1020200042EA90124FEA80604FEA1C4C0CFB0BF71F
:10203000D21B03FB0CF761EB07010CFB0EF7B0EBB7
:10204000074072EB17420CFB08F734BFA2EB0742C4
:10205000B2EB074261EB17414FEA8C554FEA91070B
:1020600004EB9C2406FB07FC4FEA1C4C0CFB0BF713
:10207000B0EBC74072EB573203FB0CF734BFA2EB57
:10208000C742B2EBC74261EB57310CFB0EF7B0EB26
:10209000C70072EB57720CFB08F734BFA2EBC70204
:1020A000B2EBC70261EB577115EB4C254FEA81612A
:1020B00041EA92114FEA82624FEAD13742EA901226
:1020C00006FB07FC44F100044FEA80604FEA1C4C19
:1020D0000CFB0BF7D21B03FB0CF761EB07010CFBAE
:1020E0000EF7B0EB074072EB17420CFB08F734BF5A
:1020F000A2EB0742B2EB074261EB174115EB1C154F
:102100004FEA813141EA92414FEA823242EA9042FB
:102110004FEA80304FEA0C7644F1000448EA03436A
:102120004EEA0B484FF0000EB2EB080C71EB0307C0
:1021300024BF624639464EEB0E0E4FF0000B0018DE
:10214000524149414BEB0B0BB2EB080C71EB03070F
:102150007BF1000B24BF624639464EEB0E0E4FF06A
:10216000000B0018524149414BEB0B0BB2EB080C32
:1021700071EB03077BF1000B24BF624639464EEB3F
:102180000E0E51EA020718BF46F0010616EB0E7656
:1021900055F1000254F1000103D5BDE88901BDE805
:1021A0000088BDE88901BDE80048B619524141EBFD
:1021B0000101A3F10103704780807F7E7D7C7B7AE3
:1021C0007978777676757473727171706F6E6E6DE3
:1021D0006C6C6B6A6A696868676666656464636389
:1021E00062616160605F5F5E5E5D5D5C5C5B5B5A0F
:1021F0005A5959585857575656555555545453537C
:1022000052525251515050504F4F4F4E4E4D4D4DD6
:102210004C4C4C4B4B4B4A4A4A4949494848484721
:10222000474747464646454545444444444343435F
:102230004342424242414141002B9C4630D4770008
:102240002BD01CB54FEA370703B44FF010004FF006
:102250001001BAF1000F06D0BCF1000FDCBF40F056
:10226000080040F008014FF000000FBCBDE810402E
:102270000BF1010BBBF1010F08BF5FEA170722BF8B
:1022800012F1010211F101014FF0004143F100038D
:1022900000F0004043EA00007047F9D35708D0E748
:1022A00046EA064613F1400F4FEA16461FDD13F1CA
:1022B000200FDFBF16430A46002120335B42BED009
:1022C000C3F1200746EA064602FA07F74FEA164628
:1022D00046EA0706C3F1200722FA03F201FA07F7DC
:1022E00021FA03F14FF0000342EA0702A7E746EAAA
:1022F000020646EA06464FEA164646EA0106BCBF13
:1023000046EA0646360C4FF000034FF000024FF04D
:10231000000194E72DE9804C9A46934670B491E809
:10232000380007C831EA400C48BF34EA430C03D5F3
:10233000FFF7E6FDFFF780FFF0BCBDE8008C2DE95C
:10234000804C9A46934670B491E8380007C810F064
:10235000804F08BF13F0804F03D100F005F8FFF75E
:102360006BFFF0BCBDE8008C20F07F4780EA0300E3
:1023700023F07F4C07EB0C03A3F57C5300F00040E7
:10238000A3F1FE0392F0000F00F0B38095F0000F70
:1023900000F077802DE901494FEA11404FEA1446D9
:1023A00021EA004800FB06FC24EA064708FB06F683
:1023B00007FB08F800FB07F718EB06484CEB164C38
:1023C0004FEA124B18EB07484FEA15464CEB174003
:1023D00022EA0B4E0BFB06FC25EA06470EFB06F62F
:1023E00007FB0EFE0BFB07F71EEB064E4CEB164CE5
:1023F0004FF000061EEB074E4CEB174B18EB0B088B
:1024000040F1000018EB0E0B58EB000840F1000003
:102410008F1A4FF000013CBFC943661B14BFB5EBD8
:10242000040C00213CBFC943F61B4FEA17444EEA97
:102430008E0E27EA04454FEA1C4704FB07622CEA8C
:10244000074C05FB07F70CFB05F604FB0CFC16EB31
:10245000074642EB174216EB0C4642EB1C421BEBC5
:10246000060658EB0202414146EA9E0601D5BDE848
:102470000189B619524141EB0101A3F10103BDE805
:1024800001894FEA14454FEA114724EA054621EA3B
:10249000074C05FB07F406FB07F70CFB06F105FBF1
:1024A0000CFC11EB074144EB17444FEA124711EBC8
:1024B0000C4144EB1C4422EA074C05FB07F206FBE7
:1024C00007F70CFB06F605FB0CFC16EB074642EB88
:1024D000174216EB0C4642EB1C456A1854F10001FA
:1024E00048BF7047B619524141EB0101A3F1010306
:1024F000704795F0000F37D04FEA11424FEA14476A
:1025000021EA024624EA074C02FB07F106FB07F723
:102510000CFB06F402FB0CFC14EB074441EB1741E7
:102520004FEA154714EB0C4441EB1C4125EA074CDC
:1025300002FB07F506FB07F70CFB06F602FB0CFC9B
:1025400016EB074645EB174516EB0C4645EB1C42D0
:10255000121951F1000148BF7047B619524141EBC1
:102560000101A3F1010370474FEA14454FEA1147F7
:1025700024EA054621EA074C05FB07F106FB07F7AD
:102580000CFB06F24FF0000605FB0CFC12EB0742B9
:1025900041EB174112EB0C4251EB1C4148BF704715
:1025A000921841EB0101A3F10103704770B5044695
:1025B00000688168C943C90717D1816821F001010A
:1025C000816000F005FF05460AE000BF00F000FF53
:1025D000401B022804D920688068C043C00706D089
:1025E00020688068C043C007F0D0002070BDA06A9A
:1025F00040F01000A062E06A40F00100E0620120BB
:1026000070BD0000F8B50026044600960068816899
:10261000C943C9072DD0816841F001018160164886
:1026200016490068B0FBF1F000E0401E0090002861
:10263000FBD100F0CDFE054616E000BF00F0C8FE5D
:10264000401B022810D920688068C043C0070BD007
:10265000A06A40F01000A062E06A40F00100E06271
:1026600084F824600120F8BD20688068C043C0075A
:10267000E4D10020F8BD00000C00002040420F0013
:10268000FEE7704772B602A002F070FEFBE70000A2
:102690003636360A000000002DE9F84300260546CC
:1026A00000960068734F0C46B046B8420AD0724993
:1026B000884207D07149884204D040F2D67170A098
:1026C00002F0D4FD206830B3012824D0022822D0A3
:1026D000032820D004281ED005281CD006281AD094
:1026E000072818D0082816D0092814D00A2812D094
:1026F0000B2810D00C280ED00D280CD00E280AD094
:102700000F2808D0102806D0112804D040F2D77125
:102710005BA002F0ABFD6068012822D0022820D027
:1027200003281ED004281CD005281AD0062818D04B
:10273000072816D0082814D0092812D00A2810D04B
:102740000B280ED00C280CD00D280AD00E2808D04B
:102750000F2806D0102804D04FF4FB6148A002F0E7
:1027600085FDA06890B1012810D002280ED0032862
:102770000CD004280AD0052808D0062806D007283F
:1027800004D040F2D9713EA002F070FD95F824000B
:10279000012812D0012085F8240060681F21072835
:1027A0000ED22B685A6B401E00EB800081408A439A
:1027B000216881400A435A631AE00220BDE8F88389
:1027C0002A680D280AD2136BC01F00EB80008140DD
:1027D0008B43216881400B43136309E0D36A0D38B2
:1027E00000EB800081408B43216881400B43D36222
:1027F000206807212A680A280AD3D3680A3800EB20
:10280000400081408B43A16881400B43D36008E0C6
:10281000136900EB400081408B43A16881400B436A
:1028200013612068102801D011281FD12868B842F0
:1028300017D18168090219D4816841F400018160CF
:102840002068102812D11C481C490068B0FBF1F028
:1028500000EB8000400000E0401E00900028FBD10B
:1028600004E0A86A40F02000A862012685F82480D0
:102870003046A3E70024014000280140003C01400D
:102880002E2E2F447269766572732F53544D333256
:10289000463178785F48414C5F4472697665722FA3
:1028A0005372632F73746D3332663178785F686169
:1028B0006C5F6164632E63000C00002040420F00D7
:1028C00010B504460068084988420AD00749884282
:1028D00007D00749884204D040F2E56105A002F024
:1028E000C5FC2068C06C10BD0024014000280140D8
:1028F000003C01402E2E2F447269766572732F536F
:10290000544D3332463178785F48414C5F447269A8
:102910007665722F5372632F73746D33326631781C
:10292000785F68616C5F6164632E63002DE9F04736
:1029300004004FF000057CD075492068754E884230
:1029400009D07549884206D0B04204D040F2A9119E
:1029500072A002F08BFC606838B1B0F5006F04D053
:102960004FF4D5716DA002F081FCA0684FF480791E
:1029700030B1484504D040F2AB1168A002F076FCBB
:10298000207B30B1012804D04FF4D67163A002F04F
:102990006DFCE0694FF400284FF4402AB8B1B0F55F
:1029A000003F14D0B0F5C02F11D040450FD0B0F586
:1029B000202F0CD050450AD0B0F5802F07D0B0F5AD
:1029C000602F04D040F2AD1154A002F04FFCA0687B
:1029D00000281CD02069401E0F2804D940F2B111F4
:1029E0004EA002F043FC207D88B1012806D04FF4B0
:1029F000D9714AA002F03AFC207D40B1A069401E86
:102A0000072804D940F2B51144A002F02FFCA06AB7
:102A1000002728B9E76284F82470204600F0A0F867
:102A20002046FFF7C3FDA16AC90600D430B1A06AF1
:102A300000E06BE040F01000A06267E0A16A21F4C2
:102A4000885141F00201A1622368E169B34202D1D9
:102A5000514500D14146267BCC4641EA4602616899
:102A60000A43A168614509D0012907D05FF0000140
:102A700094F81480B8F1010F02D00AE04946F7E754
:102A8000C6B1A66A46F02006A662E66A46F00106CE
:102A9000E6625E6826F469460E435E6023689968C4
:102AA0002C4E314011439960A16861450BD001293A
:102AB00009D00CE0DFF8A080A66908EB46360E438B
:102AC00046F40061E5E7218A0D05A5F5801521682A
:102AD000CB6A23F470032B43CB62216889681F4BB8
:102AE0001940914208D1E762A16A21F0020141F048
:102AF0000101A162BDE8F087A06A20F0020040F069
:102B00001000A062E06A40F00100E0620120F1E7FD
:102B100000240140003C0140002801402E2E2F449B
:102B20007269766572732F53544D3332463178781B
:102B30005F48414C5F4472697665722F5372632F10
:102B400073746D3332663178785F68616C5F61648D
:102B5000632E6300FDF7E1FF00E0FFFFFE0E1FFFA5
:102B600000B585B0002100910191029103910068A8
:102B70000E49884218D10E48816941F40071816183
:102B8000816901F400710491816941F0040181615E
:102B90008069694600F00400049001200090032041
:102BA0000190044800F06EFA05B000BD0024014019
:102BB00000100240000801402DE9F84300270D46AF
:102BC000044600970068504988420AD04F4988421D
:102BD00007D04F49884204D040F2B3414DA002F0E3
:102BE00045FB00F0F5FB804620688168C90508D5E3
:102BF000A06A40F02000A06284F824700120BDE8A3
:102C0000F8834168C90503D4C06A10F4700F2AD054
:102C1000022000F0FDFC4D490968B1FBF0F6206888
:102C200003694B490B424FEA61014FEAA1121FD1E0
:102C3000C3684FEA611C13EA0C0F19D103690B42F8
:102C400025D1C068104222D1142023E0681C0AD08C
:102C50002DB100F0BDFBA0EB0800A84203D920680D
:102C60000068800725D5206800688007EED52DE034
:102C700003690B4202D1C168114206D0026935498D
:102C80000A4206D1C068084203D1542002E029203C
:102C900000E0FC204643009816E0681C11D02DB1DE
:102CA00000F096FBA0EB0800A8420AD90098B042B9
:102CB00007D2A06A40F00400A06284F824700320C8
:102CC0009DE70098401C0090B042E6D321686FF069
:102CD00012000860A06A40F40070A062206880685A
:102CE000C0F3424007280CD1207B50B9A06A20F4E1
:102CF0008070A062A06AC00403D4A06A40F0010002
:102D0000A06200207BE70000002401400028014071
:102D1000003C01402E2E2F447269766572732F534A
:102D2000544D3332463178785F48414C5F44726984
:102D30007665722F5372632F73746D3332663178F8
:102D4000785F68616C5F6164632E63000C00002033
:102D5000244992244992240070B5044600683449FD
:102D6000344D884209D0A84207D03349884204D064
:102D700040F2114131A002F079FA94F824000128C0
:102D80000DD0012084F824002046FFF73BFC020010
:102D90004FF0000005D084F82400104670BD0220DA
:102DA00070BDA16A40F20123994341F48071A16290
:102DB0001F492368091DAB4218D10E6816F4702F05
:102DC00014D0A66A46F48016A6620E68760505D56C
:102DD000A66A26F4005646F48056A662A66AF60451
:102DE0000AD5E66A26F00606E66206E0A66A26F43A
:102DF0008016A6625E68E9E7E06284F824006FF05E
:102E00000200186020688368C3F34243072B05D192
:102E1000A84208D1096811F4702F04D0816841F4E8
:102E200080118160B9E7816841F4A001F9E70000F1
:102E30000024014000280140003C01402E2E2F4478
:102E40007269766572732F53544D333246317878F8
:102E50005F48414C5F4472697665722F5372632FED
:102E600073746D3332663178785F68616C5F61646A
:102E7000632E630010B504460068134988420AD0E7
:102E80001249884207D01249884204D040F2824158
:102E900010A002F0EBF994F82400012807D00120DB
:102EA00084F824002046FFF781FB10B107E00220E0
:102EB00010BDA16A21F4885141F00101A1620021F5
:102EC00084F8241010BD00000024014000280140B7
:102ED000003C01402E2E2F447269766572732F5389
:102EE000544D3332463178785F48414C5F447269C3
:102EF0007665722F5372632F73746D333266317837
:102F0000785F68616C5F6164632E630010B590F850
:102F100021100022022905D00421816380F820209D
:102F2000012010BD01680B6823F00E030B600168DF
:102F30000B6823F001030B6090F84030C46B012153
:102F400001FA03F3636080F8211080F82020104616
:102F500010BD00002DE9F05F90F821100024022937
:102F600003D004218163012485E001680A6822F00E
:102F70000E020A6001680A6822F001020A603F4EF0
:102F80003E4FB215DFF8F4C0DFF8F090DFF8ECA0A8
:102F9000DFF8E8B0DFF8E4E00168783F13011502DC
:102FA000ACF1640CA9F15009AAF13C0AABF1280B71
:102FB000AEF1140E4FF48018B14227D9B9420ED0A9
:102FC000614512D049451DD0514518D0594518D0FA
:102FD000714501D1424615E0294EB14201D101228D
:102FE00010E0274E1436B14201D110220AE0244EDF
:102FF0002836B14206D0224A3C32914201D11A46CB
:1030000000E02A461E49091F0A602BE0B94213D08E
:10301000614517D0494522D051451DD059451DD095
:10302000714501D142461AE0B14202D14FF080729F
:1030300015E0134EB14201D1012210E0104E1436BA
:10304000B14201D110220AE00D4E2836B14206D01D
:103050000B4A3C32914201D11A4600E02A46074908
:1030600080394A60012180F82110002180F8201069
:10307000416B01B188472046BDE8F09F80000240C7
:10308000080402402DE9F84F0027DFF8BCA2DFF862
:10309000BCB20D460446B946504514D05C4512D02A
:1030A000AB4884420FD0AB4884420CD0AA4884423B
:1030B00009D0AA48844206D0A948844203D0BD2141
:1030C000A8A002F0D3F828680104090C01D0000C74
:1030D00003D0BE21A3A002F0C9F8686800281FD061
:1030E0000128FCD01128FAD00228F8D01228F6D0F6
:1030F000AB498842F3D0AB498842F0D0AA49884214
:10310000EDD0AA498842EAD0A9498842E7D0A94926
:103110008842E4D00328E2D0BF2192A002F0A6F8B2
:103120000BE1012000FA07F801EA0806464574D1D0
:10313000544514D05C4512D0854884420FD0854850
:1031400084420CD08448844209D08448844206D00A
:103150008348844203D0CD2182A002F087F89048B2
:1031600069680A1A814259D00EDC032975D006DC41
:10317000002953D0012919D0022969D131E0112940
:1031800021D0122964D13AE0B2F5881F46D006DC7E
:10319000B2F5803F42D0B2F5801F59D13EE0B2F582
:1031A000001F3BD0B2F5041F52D137E0E868022877
:1031B00007D0012805D0032803D0D52169A002F04B
:1031C00055F8E8683EE0E868022807D0012805D0F5
:1031D000032803D0DC2163A002F048F8E868001D52
:1031E00030E0E868022807D0012805D0032803D082
:1031F000E3215CA002F03AF8E868083022E0E868D1
:10320000022807D0012805D0032803D0EA2155A0C1
:1032100002F02CF8E8680C3014E08DE0A86880B16A
:10322000012811D0022807D0F7214EA002F01EF885
:10323000A86830B1012807D04FF00809C4F81480FD
:1032400006E00420814603E04FF00809C4F810802E
:10325000FF2E05D8224605E0FFE74FF00000F1E71A
:1032600004F104024FEA870001D9A0F1200013689D
:103270004FF00F0101FA00FC23EA0C0309FA00FCED
:1032800043EA0C0313606868C00055D54A48826958
:1032900042F001028261806927F0030200F0010020
:1032A0000090464813189868BA07120F9140884357
:1032B000544501D1002118E05C4501D1012114E001
:1032C00023498C4201D102210FE022498C4201D1D5
:1032D00003210AE020498C4201D1042105E01F4965
:1032E0008C4201D1052100E0062191400143996003
:1032F0006868C0023248016801D5314300E0B1433B
:103300000160686880022F48016801D5314300E000
:10331000B1430160686880032B48016801D53143DF
:1033200000E0B14301606868C0032848016801D526
:10333000314300E0B14301607F1C2E683146FE40FE
:103340007FF4EFAEBDE8F88F00080140000C0140AB
:10335000001001400014014000180140001C014011
:10336000002001402E2E2F447269766572732F5310
:10337000544D3332463178785F48414C5F4472692E
:103380007665722F5372632F73746D3332663178A2
:10339000785F68616C5F6770696F2E630000000082
:1033A0000000111000002110000031100000121068
:1033B0000000221000003210001002400000014006
:1033C000080401400C0401400404014000040140D1
:1033D00001488068704700000000002002488168B2
:1033E000027811448160704700000020074810B542
:1033F000016841F010010160032000F0C9F80F20BE
:1034000000F006F800F024F8002010BD0020024073
:1034100070B50D4D04464FF47A712878B1FBF0F089
:103420000A490968B1FBF0F000F0EDFD48B9102C35
:1034300007D200222146501E00F05AF800206C608E
:1034400070BD012070BD0000000000200C000020B5
:103450000C4808B5816941F001018161816901F081
:1034600001010091C16941F08051C161C06900F062
:10347000805000900448416821F0E06141F0007103
:10348000416008BD001002400000014010B504007A
:1034900003D5BD2107A001F0E9FE002C09DB04F0F3
:1034A0001F01012088406109890001F1E021C1F874
:1034B000000110BD2E2E2F447269766572732F5352
:1034C000544D3332463178785F48414C5F447269DD
:1034D0007665722F5372632F73746D333266317851
:1034E000785F68616C5F636F727465782E6300004B
:1034F00070B515460C460646102A03D3A92114A020
:1035000001F0B4FE102C03D3AA2111A001F0AEFEED
:103510001E480068C0F30223C3F107022046042AB4
:1035200000D90422191D072901D2002300E0DB1E67
:10353000012404FA02F1491E014099409C40641E96
:103540002C4021433046BDE8704001F078BE0000B9
:103550002E2E2F447269766572732F53544D333279
:10356000463178785F48414C5F4472697665722FC6
:103570005372632F73746D3332663178785F68618C
:103580006C5F636F727465782E6300000CED00E071
:1035900010B5044607280BD0062C09D0052C07D0FF
:1035A000042C05D0032C03D0912108A001F05EFE6D
:1035B000154904F0070208684FF6FF03184040EA77
:1035C0000220124A1043086010BD00002E2E2F4426
:1035D0007269766572732F53544D33324631787861
:1035E0005F48414C5F4472697665722F5372632F56
:1035F00073746D3332663178785F68616C5F636FC6
:10360000727465782E6300000CED00E00000FA058E
:1036100070B506460025C0070CD1B0070AD4700764
:1036200008D4300706D4F00604D44FF4CA712AA097
:1036300001F01CFE374C042E27D004DC012E28D0CC
:10364000022E3ED13FE0082E1FD0102E39D16068E7
:103650002168C90135D53049C0F38342C0038D5C70
:1036600009D56068891EC0F34040085C2B49B1FB56
:10367000F0F0454301E02A4845436068400220D409
:1036800068000321B0FBF1F51BE000F04FFA05469E
:1036900017E0216AC1F30120012803D1890701D570
:1036A000C5030EE0022805D1616A890702D549F6F3
:1036B000404506E0032804D12068800301D54FF27D
:1036C0002445284670BD00F021FA6168C1F38131BC
:1036D000491C4900D6E700002E2E2F4472697665FA
:1036E00072732F53544D3332463178785F48414CD2
:1036F0005F4472697665722F5372632F73746D33F2
:1037000032663178785F68616C5F7263635F657899
:103710002E630000001002401C54000800127A00C2
:1037200000093D002DE9F84304460068524DC107E9
:103730000ED1810773D441077ED40107FCD4C006A3
:103740007BD46A214DA001F091FD2078C00763D0A1
:103750006068002660B1B0F5807F09D0B0F5007FC9
:1037600006D0B0F5407F03D0722144A001F07EFD69
:10377000E869C00008D4E86940F08050E861E86971
:10378000012600F0805000904B480168C90512D412
:103790000168804641F480710160FFF719FE074619
:1037A00005E000BFFFF714FEC01B642823D8D8F83B
:1037B0000000C005F6D5286A10F4407021D0A18819
:1037C00001F4407181421CD0286A3C49012220F456
:1037D00040700A6000220A602862C00711D0FFF71B
:1037E000F7FD074641F2883808E000BFFFF7F0FD1B
:1037F000C11B414502D90320BDE8F883286A800730
:10380000F4D5286A616820F44070084328621EB12C
:10381000E86920F08050E8612078800717D5A0681B
:1038200078B1B0F5804F0CD0B0F5004F09D0B0F5AD
:10383000404F06D0B72101E009E00BE00FA001F0F6
:1038400015FD6868A16820F440400843686020784E
:10385000C0060FD56069B0F5800F05D020B140F2E9
:10386000131106A001F002FD6868616920F4800070
:10387000084368600020BFE7001002402E2E2F444E
:103880007269766572732F53544D333246317878AE
:103890005F48414C5F4472697665722F5372632FA3
:1038A00073746D3332663178785F68616C5F726310
:1038B000635F65782E630000007000404004424260
:1038C0002DE9F0470F46050078D02868C1070AD1D6
:1038D000810708D4410706D4000704D440F23631EA
:1038E0006FA001F0C3FC47B1012F06D0022F04D016
:1038F00040F237316AA001F0B9FC774E306800F031
:103900000700B84209D2306820F007003843306021
:10391000306800F00700B84277D128686F4C810703
:1039200029D5400703D5606840F4E06060602878DE
:10393000000703D5606840F460506060A868A0B1DB
:10394000802812D0902810D0A0280ED0B0280CD0FB
:10395000C0280AD0D02808D0E02806D0F02804D00B
:1039600040F25D314EA001F081FC6068A96820F052
:10397000F000084360602878C00737D0686868B1F5
:1039800001281CD002281DD04FF4597144A001F029
:103990006DFC6868012812D0022813D020688007C7
:1039A000002832DA6068696820F00300084360602C
:1039B000FFF70EFD804641F2883910E025E02068CF
:1039C0008003EDE720688001EAE700BFFFF700FD14
:1039D000A0EB0801494502D90320BDE8F0876068E3
:1039E000696800F00C00B0EB810FEFD1306800F097
:1039F0000700B8420BD9306820F007003843306028
:103A0000306800F00700B84201D00120E5E72878CF
:103A10004FF4806640074FF4A0674FF4C0684FF43E
:103A2000E06914D5E86860B1B0420AD0B84208D065
:103A3000404506D0484504D040F2A23118A001F01C
:103A400015FC6068E96820F4E0600843606028784D
:103A5000000715D5286960B1B0420AD0B84208D035
:103A6000404506D0484504D040F2A9310CA001F0F1
:103A7000FDFB6068296920F4605040EAC100606085
:103A800000F054F86168164AC1F30311515CC84054
:103A90001449086014480068FFF7BAFC00209CE74E
:103AA0002E2E2F447269766572732F53544D333224
:103AB000463178785F48414C5F4472697665722F71
:103AC0005372632F73746D3332663178785F686137
:103AD0006C5F7263632E630000200240001002409E
:103AE0002C5400080C000020040000200448054964
:103AF00000684968044AC1F30221515CC84070471C
:103B00000C000020001002403C5400080448054905
:103B100000684968044AC1F3C221515CC84070473B
:103B20000C000020001002403C5400080E4A51686E
:103B30000E4801F00C03042B11D0082B0FD10C48B8
:103B4000C1F38343C903C05C0AD55168084AC1F375
:103B50004041921E515C054A5043B0FBF1F0704762
:103B600004494843704700000010024000127A00E8
:103B70000A54000800093D002DE9F84F04007DD0EB
:103B8000FA4EFB4D20684FF0010A4FF000084FF449
:103B9000803960B1C1070DD1810762D401076ED4AD
:103BA00040076DD440F26511F2A001F05FFB207870
:103BB000C00753D060684FF4A02740B1484506D0F5
:103BC000B84204D040F26B11EAA001F04FFB6868E4
:103BD000C0F38100012807D06868C0F38100022883
:103BE00009D16868C00306D52868800336D56068A7
:103BF0000028C4D032E06068484503D1286840F40A
:103C0000803009E008B1B8420DD0286820F4803037
:103C10002860286820F480202860606888B1FFF759
:103C2000D7FB074609E0286840F480202860E5E7D4
:103C3000FFF7CEFBC01B642877D828688003F7D530
:103C40000CE0FFF7C5FB074605E000BFFFF7C0FB30
:103C5000C01B6428F0D828688003F7D42078800738
:103C60004ED5206930B1012804D040F29F11C1A087
:103C700001F0FCFA60691F2808D902E096E042E0F2
:103C80007BE04FF4D071BBA001F0F0FA686810F04F
:103C90000C0F07D06868C0F38100022809D168685A
:103CA000C00306D42868800714D5206901287DD177
:103CB00010E02069B0B1C6F800A0FFF789FB074605
:103CC00005E000BFFFF784FBC01B0228B4D82868BA
:103CD0008007F7D52868616920F0F80040EAC10044
:103CE00028600DE0C6F80080FFF772FB074604E08D
:103CF000FFF76EFBC01B02289ED828688007F7D408
:103D00002078000736D5A94FA06920B3012806D036
:103D10004FF4F07197A001F0A9FAA069D8B1C7F8E3
:103D200000A0FFF755FB074605E054E1FFF750FB05
:103D3000C01B02288ED8686A8007F7D59C484FF4CC
:103D4000FA510068B0FBF1F0009000BF0098411EEE
:103D50000091FAD20EE0C7F80080FFF739FB074662
:103D600005E000BFFFF734FBC01B0228AED8686A2D
:103D70008007F7D4207840076ED5E068002740B16F
:103D8000012806D0052804D040F20F2179A001F0C7
:103D90006DFAE869C00008D4E86940F08050E86135
:103DA000E869012700F08050009000E027E1814899
:103DB0000168C90512D4016841F480710160FFF700
:103DC00007FB834606E000BFFFF702FBA0EB0B00FA
:103DD000642891D877480068C005F5D5E0680128C7
:103DE0000AD008B1052811D0286A20F00100286205
:103DF000286A20F0040002E0286A40F001002862EE
:103E0000E068A8B1FFF7E4FA83460DE0286A40F0C5
:103E100004002862F0E700BFFFF7DAFAA0EB0B011D
:103E200041F28830814285D8286A8007F4D50EE0B7
:103E3000FFF7CEFA834607E0FFF7CAFAA0EB0B01C3
:103E400041F28830814291D8286A8007F4D41FB1AA
:103E5000E86920F08050E861E06900287ED0012800
:103E600009D0022807D040F2AD2142A001F0FEF9AE
:103E7000E069002872D06868C0F381000228E06918
:103E80006DD0022805D0C6F86080FFF7A1FA04467D
:103E9000A4E0206A30B1484504D040F2B62135A0F4
:103EA00001F0E4F9606A70B3B0F5802F2BD0B0F563
:103EB000002F28D0B0F5402F25D0B0F5801F22D09C
:103EC000B0F5A01F1FD0B0F5C01F1CD0B0F5E01F8B
:103ED00019D0B0F5001F16D0B0F5101F13D0B0F5F3
:103EE000201F10D0B0F5301F0DD0B0F5401F0AD004
:103EF000B0F5501F07D0B0F5601F04D040F2B721D5
:103F00001CA001F0B3F9C6F86080FFF761FA07461C
:103F100005E000BFFFF75CFAC01B02285BD82868E9
:103F20008001F7D4206A48450FD1A06838B1B0F5B8
:103F3000003F04D040F2CD210EA001F097F968684F
:103F4000A16820F4003008436860D4E90801084300
:103F5000696821F474110843686001E051E041E0B0
:103F6000C6F860A0FFF734FA04462AE00000424297
:103F7000001002402E2E2F447269766572732F5303
:103F8000544D3332463178785F48414C5F44726912
:103F90007665722F5372632F73746D333266317886
:103FA000785F68616C5F7263632E630080044242D5
:103FB0000C00002000700040FFF70AFA001B0228E6
:103FC00009D828688001F7D51BE000BFFFF700FA89
:103FD000001B022802D90320BDE8F88F2868800161
:103FE000F4D40EE00128F7D06868226A00F480312A
:103FF000914204D1616A00F47010884201D001201E
:10400000EAE70020E8E710B5401EB0F1807F01D359
:10401000012010BD4FF0E02460610F21601701F016
:104020000EF90020A06107202061002010BD70471C
:10403000704700002DE9F05F04460068364E374FA8
:10404000DFF8DC80DFF8DC90DFF8DCA00D464FF015
:10405000804BB04214D0B84212D0584510D04045E1
:104060000ED048450CD050450AD03049884207D080
:104070002F49884204D040F2A9712EA001F0F6F831
:10408000286890B1102810D020280ED030280CD0ED
:1040900040280AD0502808D0602806D0702804D0C4
:1040A00040F2AA7123A001F0E1F86868802805D0E9
:1040B00020B140F2AB711FA001F0D8F894F83C0099
:1040C000012827D0012284F83C20022084F83D00FA
:1040D000216848688B6820F0700C286840EA0C0062
:1040E00048602068B04209D0B84207D0584505D092
:1040F000404503D0484501D0504504D1696823F0BC
:1041000080031943816084F83D20002084F83C003E
:10411000BDE8F09F0220FBE7002C01400034014085
:104120000004004000080040000C00400010004067
:10413000001400402E2E2F447269766572732F533F
:10414000544D3332463178785F48414C5F44726950
:104150007665722F5372632F73746D3332663178C4
:10416000785F68616C5F74696D5F65782E630000CD
:1041700010B5040051D03C492068884219D03B4911
:10418000884216D0B0F1804F13D03949884210D000
:10419000384988420DD0384988420AD03749884288
:1041A00007D03749884204D040F2131135A001F0FE
:1041B0005DF8A06860B110280AD0202808D04028F7
:1041C00006D0602804D04FF48A712EA001F04EF87A
:1041D000206950B1B0F5807F07D0B0F5007F04D0E2
:1041E00040F2151127A001F041F8E0684FF6FE718A
:1041F000401E884204D94FF48B7122A001F036F89A
:10420000A06930B1802804D040F217111DA001F040
:104210002DF894F83D0010B107E0012010BD0020FA
:1042200084F83C00204600F049F8022084F83D0064
:10423000211D206800F0F4FD012084F8460084F878
:104240003E0084F83F0084F8400084F8410084F880
:10425000420084F8430084F8440084F8450084F860
:104260003D00002010BD0000002C01400034014042
:104270000004004000080040000C00400010004016
:10428000001400402E2E2F447269766572732F53EE
:10429000544D3332463178785F48414C5F447269FF
:1042A0007665722F5372632F73746D333266317873
:1042B000785F68616C5F74696D2E630008B5006893
:1042C000B0F1804F12D10A48C16941F00101C161CA
:1042D000C069002200F00100009011461C20FFF789
:1042E00007F9BDE808401C20FFF7D0B808BD000062
:1042F000001002402DE9F05F054690F83C000C46A6
:104300004FF0000B01283ED0012085F83C00022030
:1043100085F83D0020684FF480594FF4005A484515
:1043200015D0702813D0504511D040280FD05028F8
:104330000DD060280BD050B1102808D0202806D00E
:10434000302804D041F2C241BDA000F08FFF29689F
:10435000886820F0770020F47F4088602068C64994
:10436000C64AC74BC74EC84F4FF0804C4FF4004869
:10437000502872D00FDC202804D007DC0028FBD0A6
:1043800010286BD13CE10220BDE8F09F3028F9D025
:104390004028F6D105E160287DD070285FD04845DF
:1043A00042D05045EDD1286888420ED090420CD0C2
:1043B00060450AD0984208D0B04206D0B84204D036
:1043C00041F2ED419EA000F051FFA06858B1484570
:1043D00009D0504507D0B0F5405F04D041F2F0411C
:1043E00097A000F043FF6068404509D040B1022823
:1043F00006D00A2804D041F2F14191A000F036FF26
:10440000E0680F2804D941F2F2418DA000F02EFFA0
:10441000D4E90121E368286800F050FD286881682C
:1044200041F48041816002E128688842FBD09042DB
:10443000F9D06045F7D09842F5D0B042F3D0B842F9
:10444000F1D092498842EED091498842EBD041F2B6
:10445000CE417BA000F00AFFE9E042E0E5E02868F9
:1044600088420ED090420CD060450AD0984208D0C5
:10447000B04206D0B84204D041F2D54170A000F05D
:10448000F5FEA06868B148450BD0504509D0B0F59D
:10449000405F06D000E053E041F2D84168A000F050
:1044A000E5FE6068404509D040B1022806D00A28E0
:1044B00004D041F2D94162A000F0D8FEE0680F2894
:1044C00004D941F2DA415EA000F0D0FED4E9012126
:1044D000E368286800F0F2FC2868816841F0770101
:1044E000A0E7286888420ED090420CD060450AD0E0
:1044F000984208D0B04206D0B84204D041F20151EF
:104500004FA000F0B3FE6068404509D040B10228DA
:1045100006D00A2804D041F2045149A000F0A6FEBA
:10452000E0680F2804D941F2055145A000F09EFE35
:10453000E2686168286800F0D3FC502128682DE00B
:10454000286888420ED090420CD060450AD098422C
:1045500008D0B04206D0B84204D041F2115138A080
:1045600000F084FE6068404509D040B1022806D0C2
:104570000A2804D041F2145131A000F077FEE0681F
:104580000F2804D941F215512DA000F06FFEE2680A
:104590006168286800F0B5FC6021286800F098FC8C
:1045A00045E0286888420ED090420CD060450AD081
:1045B000984208D0B04206D0B84204D041F221510E
:1045C0001FA000F053FE6068404509D040B10228AA
:1045D00006D00A2804D041F2245119A000F046FE6A
:1045E000E0680F2804D941F2255115A000F03EFEE5
:1045F000E2686168286800F073FC40212868CDE714
:10460000286888420ED090420CD060450AD098426B
:1046100008D0B04206D0B84204D041F2345108A0CC
:1046200000F024FE21682868B8E74FF0010B012054
:1046300085F83D00002085F83C005846A4E60000BF
:104640002E2E2F447269766572732F53544D333278
:10465000463178785F48414C5F4472697665722FC5
:104660005372632F73746D3332663178785F68618B
:104670006C5F74696D2E6300002C014000340140B2
:104680000004004000080040000C00400010004002
:104690000014004070472DE9F04104460068C668E8
:1046A00005694FF00007A90713D5B10711D5F91E09
:1046B000016101202077206880698007204602D0B0
:1046C000FFF7E8FF04E000F07EF8204600F07CF8F9
:1046D0002777680716D5700714D521686FF0040096
:1046E0000861022020772068806910F4407F20460E
:1046F00002D0FFF7CFFF04E000F065F8204600F09D
:1047000063F82777280715D5300713D521686FF090
:1047100008000861042020772068C06980072046CF
:1047200002D0FFF7B7FF04E000F04DF8204600F09C
:104730004BF82777E80616D5F00614D521686FF0F8
:1047400010000861082020772068C06910F4407FBD
:10475000204602D0FFF79EFF04E000F034F8204628
:1047600000F032F82777E80708D0F00706D0216874
:104770006FF001000861204600F028F8280608D5EF
:10478000300606D521686FF0800008612046FFF7EB
:104790004EFC680608D5700606D521686FF040000B
:1047A0000861204600F03EF8A8060AD5B00608D5F4
:1047B00021686FF0200008612046BDE8F041FFF756
:1047C00037BCBDE8F081704770470000124910B552
:1047D00088421FD11148FEF7BFFA4FF6FF742146F9
:1047E0000E48FEF7E9F90028F9D10C48FEF768F801
:1047F0000B4C60600948FEF73DFB2078092802D980
:10480000A06800F035FDD4E9011000F05EFD2078CD
:10481000401C207010BD000058000020280000201F
:10482000100000207047704770470000F8B501681D
:1048300004460868CA684B6910F00F0F4FF0000576
:1048400059D003F0010602F49077374365D0C107D1
:1048500005D0D10503D5616C41F0010161644107C8
:1048600005D5D90703D0616C41F00201616481076D
:1048700005D5D90703D0616C41F0040161640107DB
:1048800007D502F02001314303D0616C41F00801EB
:104890006164616C00293AD0800604D5900602D587
:1048A000204600F06FFB20684069616CC0F3801007
:1048B000090700D460B3204600F03DFB2068406942
:1048C000400621D52068143050E8001F21F0400137
:1048D00040E80012002AF5D1E06BA8B16D494163B0
:1048E000E06BFEF737FB002811D0E06B416B01B0A5
:1048F000BDE8F040084783060FD593060DD5204646
:10490000BDE8F84000F03EBB2046FFF78DFFF8BD44
:104910002046FFF789FF6564F8BD266B2023012E32
:104920007CD1C6067AD5D60678D508684868009046
:1049300048694FF00206400640D5E16B08684068C0
:104940000004000CE8D0A28D8242E5D9E085886998
:1049500020282DD020680C3050E8001F21F48071F1
:1049600040E80012002AF5D12068143050E8001FFA
:1049700021F0010140E80012002AF5D1206814302E
:1049800050E8001F21F0400140E80012002AF5D154
:1049900084F84230256320680C3050E8001F21F075
:1049A000100140E80012002AF5D1E06BFEF7AEFAE4
:1049B0006663A08DE18D401A81B22AE0A08DE18D61
:1049C000401A81B2E08D0028A6D00029A4D0226828
:1049D0000C3252E8000F20F4907042E80007002FDC
:1049E000F5D12068143050E8002F22F0010240E891
:1049F0000027002FF5D184F84230256320680C3061
:104A000050E8002F22F0100240E80023002BF5D1DF
:104A100066632046FFF707FFF8BDFFE705062BD5C5
:104A2000150629D594F841002128F5D1A068B0F5E4
:104A3000805F01D12069B0B1206A411C21622168E8
:104A400000784860E08C401E0004000CE084E3D154
:104A50002068C16821F08001C1602068C16841F010
:104A60004001C160D8E7206A0088C0F308004860B0
:104A7000206A801C2062E5E74006CDD55006CBD5E4
:104A8000CA68204622F04002CA6084F8413000F033
:104A90002AF9C1E7274F000870B5040020D0A069AB
:104AA00034490028344A354B20681BD088420AD04C
:104AB000904208D0984206D04FF4B77130A000F071
:104AC000D5FBA069F8B1A069B0F5807F1BD0B0F527
:104AD000007F18D0B0F5407F15D040F26F110FE085
:104AE000012070BD88420ED090420CD098420AD06E
:104AF0003249884207D03249884204D040F27311CB
:104B00001FA000F0B3FBA06838B1B0F5805F04D0FF
:104B100040F275111AA000F0A9FB94F8410000259D
:104B200020B984F84050204600F04CF8242084F846
:104B300041002068C16821F40051C160204600F0A6
:104B400083FA2068016921F490410161206841697C
:104B500021F02A0141612068C16841F40051C1601F
:104B60006564202084F8410084F8420065630020D9
:104B700070BD000000380140004400400048004083
:104B80002E2E2F447269766572732F53544D333233
:104B9000463178785F48414C5F4472697665722F80
:104BA0005372632F73746D3332663178785F686146
:104BB0006C5F756172742E6300000000004C004051
:104BC0000050004030B585B0002400940194029458
:104BD00003940068184988422CD11848816941F42F
:104BE00080418161816901F480410491816941F0D2
:104BF000040181618069124D00F0040004904FF4BB
:104C0000007000900220019003200390694628461E
:104C1000FEF738FA2815CDE90004694628460294C3
:104C2000FEF730FA002211462520FEF761FC252010
:104C3000FEF72CFC05B030BD0038014000100240EA
:104C40000008014070472DE9F843044690F8410000
:104C5000984616460D46202802D00220BDE8F8836B
:104C600085B17EB100206064212084F84100FEF708
:104C7000AFFBA6848146E684A0682027B0F5805F5C
:104C800002D003E00120E9E7206910B12E4600259B
:104C90000EE000260CE08021204600F07BFAA8B947
:104CA000C6B116F8010B21684860E08C401EE08414
:104CB000E08C4B464FF00002CDF800800028EAD18E
:104CC0004FF04001204600F065FA40B184F8417091
:104CD0000320C3E735F8020BC0F30800E3E784F8CC
:104CE00041700020BAE77047FEE700003EB500249F
:104CF00010480094019402940D49846001600125DC
:104D00000573047505614FF460214460C161FDF7CE
:104D10000DFE48B905200094CDE9015069460548CB
:104D2000FDF7BAFC002801D0FDF7ACFC3EBD000049
:104D3000002401402800002010B586B0002415484A
:104D4000009401940294039404944FF080410594DC
:104D500001604721C0E901144FF47A61C0E90314EE
:104D600080218161FFF704FA78B94FF480500090F8
:104D700069460848FFF7BEFA38B9049404A9054803
:104D80000594FFF757F9002801D0FDF77BFC06B02A
:104D900010BD000058000020FEE7FEE77047704796
:104DA000FEF71CBB30B595B028216846FBF700FC28
:104DB00014210AA8FBF7FCFB18210FA8FBF7F8FB4E
:104DC00001210804CDE90010002502950224049178
:104DD000CDE907404FF4E01009906846FEF7CCFE9D
:104DE00098B90AA90F2081E831006002CDE90D05CC
:104DF00002210AA8FEF764FD38B9A00311900F94B0
:104E00000FA8FEF78FFC002801D0FDF73BFC15B082
:104E100030BD70470148FFF73EBC0000580000203D
:104E2000F0B50268204C214D214E224F224B4FF00D
:104E3000804CA04209D0984207D0604505D0A842D6
:104E400003D0B04201D0B84204D122F0700E4A68BB
:104E500042EA0E02A04209D0984207D0604505D030
:104E6000A84203D0B04201D0B84203D122F4407529
:104E7000CA682A434D6922F080022A4302608A6888
:104E8000C2620A688262A04201D0984201D10969D7
:104E90000163012141610169C90703D0016921F062
:104EA00001010161F0BD0000002C01400004004040
:104EB00000080040000C00400034014010B5846838
:104EC00042EA032224F47F440A432243826010BD55
:104ED000826822F070020A4342F007018160704745
:104EE00010B5036A046A24F001040462846924F0A2
:104EF000F00444EA021423F00A020A4384610262C5
:104F000010BD10B5036A046A24F0100404628469B9
:104F100023F0A00324F4704444EA023243EA01116E
:104F20008261016210BD10B5406A0021C185C18453
:104F3000FFF77AFC10BD01680C3151E8002F22F414
:104F4000907241E80023002BF5D10168143151E83B
:104F5000002F22F0010241E80023002BF5D1016B64
:104F6000012909D101680C3151E8002F22F010020B
:104F700041E80023002BF5D1202180F842100021C8
:104F80000163704708B590F84210222901D0022031
:104F900008BD82684FF480539A4201D1016921B162
:104FA000816A9A421BD04AB10AE00268816A52685B
:104FB000C2F308020A80816A891C08E0026972B1A2
:104FC0000268526802F07F020A70816A491C81629D
:104FD000C18D491E0904090CC18503D01BE002687C
:104FE0005268F1E70168CA6822F02002CA600168CD
:104FF000CA6822F48072CA6001684A6922F001021C
:105000004A61202180F8421000214163026B012A8D
:1050100003D0FFF717FE002008BD016301680C31C3
:1050200051E8002F22F0100241E80023002BF5D1B7
:1050300001680A68D20602D50A6849680091818D24
:10504000FFF7F1FBE7E7000070B504464068404910
:10505000884204D940F675613EA000F007F9E06887
:1050600038B1B0F5005F04D040F6766139A000F0A9
:10507000FDF8206950B1B0F5806F07D0B0F5C06F72
:1050800004D040F6776133A000F0F0F860694FF685
:10509000F371084200D120B940F678612DA000F0EC
:1050A000E5F820680169E26821F44051114301618B
:1050B0002169A0680843616908432168CA6841F210
:1050C0000C639A430243CA6020684169A26921F4D3
:1050D0004071114341612E492068884202D1FEF798
:1050E00015FD01E0FEF702FD00EBC00101EB00122F
:1050F000606864218000B2FBF0F3B3FBF1F36FF062
:1051000018067343B2FBF0F5B2FBF0F605EB83052E
:10511000322303EB0515B5FBF1F5B6FBF1F605F00F
:10512000F00505EB0615B2FBF0F6B2FBF0F0B0FBB4
:10513000F1F06FF01802504306EB800003EB001013
:10514000B0FBF1F0216800F00F002844886070BDCA
:1051500020AA44002E2E2F447269766572732F5355
:10516000544D3332463178785F48414C5F44726920
:105170007665722F5372632F73746D333266317894
:10518000785F68616C5F756172742E630000000067
:10519000003801402DE9F843984617460D4604466D
:1051A000089E24E0701C22D0FEF712F9A0EB080044
:1051B000B0421AD8CEB12068C168490717D5802DF2
:1051C00015D0402D13D00168C94309070FD40168D9
:1051D0000025406800902046FFF7ADFE082060647F
:1051E00084F840500120BDE8F8830320FBE72068E5
:1051F000006835EA000004D00020B842D2D0002078
:10520000F1E70120F9E700000148FFF70FBB0000BC
:10521000A0000020FEE7490050EAC12018BF04208A
:105220004A0D18BF40F0010040F2FF72B2EB515F2F
:1052300008BF40F00200012808BF05207047090799
:10524000090E002804DB00F1E02080F8001470470C
:1052500000F00F0000F1E02080F8141D7047303896
:105260000A2801D2012070470020704770470000D3
:1052700010B50146006830B1D0E9004200230A6051
:105280003AB1936006E005A0FBF786F84FF0FF30D7
:1052900010BD4B60FBF747F8204610BD44657175A3
:1052A0006520697320656D7074792E0A0000000016
:1052B0008A68002A01DCFCF70FBA521E8A604A682D
:1052C000C0B2531C4B601070704770B504460D4659
:1052D0000C20FAF7F9FF0021C0E9005161688160F4
:1052E000616811B14860606070BD2060FBE700003C
:1052F00008B5FEF77BF8FFF755FD1648816941F0C8
:1053000020018161816901F020010091816941F0F2
:1053100004018161806900F004000090FFF7E6FC61
:105320000E480D490C2201604FF4E131416000212B
:105330008160C160C0E904128161C161FFF7ACFB0B
:1053400008B1FDF79FF9FFF7F7FC05A000F00EF894
:10535000FBE700000010024000380140A0000020E0
:1053600068656C6C6F20756172740A000FB470B55B
:105370009AB01FAA68461E99FAF7FCFF00246D46F2
:105380004FF6FF7607E02919334601220548FFF75B
:105390005AFC641CA4B2285D0028F4D11AB070BC79
:1053A0005DF814FBA000002010B500290AD0087891
:1053B000002807D005487844FCF7C4FC002801D039
:1053C000002010BD0248784410BD0000BA01000062
:1053D000B201000010B500290AD00878002807D0D3
:1053E00005487844FCF7AEFC002801D0002010BD31
:1053F0000248784410BD0000AA010000A20100008C
:10540000FBF7ACBCFBF7E0BD010202030405060795
:1054100008090A0B0C0D0E0F1010010202030405FF
:10542000060708090A0B0C0D0E0F101000000000F3
:105430000000000001020304060708090000000044
:105440000102030404000008000000000000000244
:10545000000100001000000000000000000000003B
:10546000303132333435363738394142434445469A
:105470004030580030313233343536373839616294
:105480006364656640307800303132333435363706
:105490003839616263646566787000303132333464
:1054A00035363738394142434445465850003A74FE
:1054B00074003A7474003A747400000002400000F2
:1054C000000000A00000000005400000000000C82F
:1054D000000000000C4000000000409C00000000A4
:1054E000194000000020BCBE000000003440000055
:1054F000BFC91B8E00000004B5400000504BCFD048
:105500006607E2CF010000006C4100003E8251AA14
:10551000DFEEA73401000000D9420000DCB5A0E2B4
:105520003A301F97FFFFFFFFB4450000FD25A0C8DC
:10553000E9A3C14FFFFFFFFFFF3F00000000008015
:1055400000000000FF3F000000000080000000009D
:105550009C56000800000020280000006C01000894
:10556000C456000828000020200800008801000818
:105570001C00000043000000F8FFFFFF0C000000CB
:105580000E0000000F0000002E00000010010000BF
:1055900043000000F8FFFFFF004040404040404013
:1055A00040404141414141404040404040404040F6
:1055B000404040404040404040050202020202029A
:1055C00002020202020202020220202020202020E9
:1055D00020202002020202020202909090909090FD
:1055E00010101010101010101010101010101010BB
:1055F000101010100202020202028888888888882F
:10560000080808080808080808080808080808081A
:105610000808080802020202400000000000000022
:10562000000000000000000000000000000000007A
:10563000000000000000000000000000000000006A
:10564000000000000000000000000000000000005A
:10565000000000000000000000000000000000004A
:10566000000000000000000000000000000000003A
:10567000000000000000000000000000000000002A
:10568000000000000000000000000000000000001A
:105690000000000000000000000000000100000009
:1056A000100000000000000000127A00000000005E
:1056B00000000000000000000000000000000000EA
:0456C00000000000E6
:0400000508000131BD
:00000001FF
